{
  "contractName": "VerifySignature",
  "abi": [
    {
      "inputs": [
        {
          "internalType": "address",
          "name": "_signer",
          "type": "address"
        },
        {
          "internalType": "bytes32",
          "name": "_messageHash",
          "type": "bytes32"
        },
        {
          "internalType": "bytes",
          "name": "_signature",
          "type": "bytes"
        }
      ],
      "name": "verifySignature",
      "outputs": [
        {
          "internalType": "bool",
          "name": "",
          "type": "bool"
        }
      ],
      "stateMutability": "pure",
      "type": "function",
      "constant": true
    }
  ],
  "bytecode": "0x608060405234801561001057600080fd5b506105cf806100206000396000f3fe608060405234801561001057600080fd5b506004361061002b5760003560e01c80630175199814610030575b600080fd5b61004a60048036038101906100459190610382565b610060565b604051610057919061040c565b60405180910390f35b600080600080604185511461007b576000935050505061018d565b6020850151925060408501519150606085015160001a9050601b8160ff1610156100af57601b816100ac9190610463565b90505b601b8160ff16141580156100c75750601c8160ff1614155b156100d8576000935050505061018d565b6000866040516020016100eb9190610510565b6040516020818303038152906040528051906020012090506000600182848787604051600081526020016040526040516101289493929190610554565b6020604051602081039080840390855afa15801561014a573d6000803e3d6000fd5b5050506020604051035190508873ffffffffffffffffffffffffffffffffffffffff168173ffffffffffffffffffffffffffffffffffffffff1614955050505050505b9392505050565b6000604051905090565b600080fd5b600080fd5b600073ffffffffffffffffffffffffffffffffffffffff82169050919050565b60006101d3826101a8565b9050919050565b6101e3816101c8565b81146101ee57600080fd5b50565b600081359050610200816101da565b92915050565b6000819050919050565b61021981610206565b811461022457600080fd5b50565b60008135905061023681610210565b92915050565b600080fd5b600080fd5b6000601f19601f8301169050919050565b7f4e487b7100000000000000000000000000000000000000000000000000000000600052604160045260246000fd5b61028f82610246565b810181811067ffffffffffffffff821117156102ae576102ad610257565b5b80604052505050565b60006102c1610194565b90506102cd8282610286565b919050565b600067ffffffffffffffff8211156102ed576102ec610257565b5b6102f682610246565b9050602081019050919050565b82818337600083830152505050565b6000610325610320846102d2565b6102b7565b90508281526020810184848401111561034157610340610241565b5b61034c848285610303565b509392505050565b600082601f8301126103695761036861023c565b5b8135610379848260208601610312565b91505092915050565b60008060006060848603121561039b5761039a61019e565b5b60006103a9868287016101f1565b93505060206103ba86828701610227565b925050604084013567ffffffffffffffff8111156103db576103da6101a3565b5b6103e786828701610354565b9150509250925092565b60008115159050919050565b610406816103f1565b82525050565b600060208201905061042160008301846103fd565b92915050565b600060ff82169050919050565b7f4e487b7100000000000000000000000000000000000000000000000000000000600052601160045260246000fd5b600061046e82610427565b915061047983610427565b9250828201905060ff81111561049257610491610434565b5b92915050565b600081905092915050565b7f19457468657265756d205369676e6564204d6573736167653a0a333200000000600082015250565b60006104d9601c83610498565b91506104e4826104a3565b601c82019050919050565b6000819050919050565b61050a61050582610206565b6104ef565b82525050565b600061051b826104cc565b915061052782846104f9565b60208201915081905092915050565b61053f81610206565b82525050565b61054e81610427565b82525050565b60006080820190506105696000830187610536565b6105766020830186610545565b6105836040830185610536565b6105906060830184610536565b9594505050505056fea2646970667358221220b11b9289eec435a2b09f6135bcc5a9b9e7742e64ff10e4094217327fc2a2ca7264736f6c63430008120033",
  "immutableReferences": {},
  "source": "// SPDX-License-Identifier: GPL-3.0\npragma solidity ^0.8.0;\n\ncontract VerifySignature {\n    function verifySignature(\n        address _signer,\n        bytes32 _messageHash,\n        bytes memory _signature\n    ) public pure returns (bool) {\n        bytes32 r;\n        bytes32 s;\n        uint8 v;\n        if (_signature.length != 65) {\n            return false;\n        }\n        assembly {\n            r := mload(add(_signature, 32))\n            s := mload(add(_signature, 64))\n            v := byte(0, mload(add(_signature, 96)))\n        }\n        if (v < 27) {\n            v += 27;\n        }\n        if (v != 27 && v != 28) {\n            return false;\n        }\n        bytes32 hash = keccak256(\n            abi.encodePacked(\"\\x19Ethereum Signed Message:\\n32\", _messageHash)\n        );\n        address signer = ecrecover(hash, v, r, s);\n        return signer == _signer;\n    }\n}\n",
  "sourcePath": "/workspace/Kunal766-Decentralized-Voting-System/truffle/contracts/Verify.sol",
  "compiler": {
    "name": "solc",
    "version": "0.8.18+commit.87f61d96.Emscripten.clang"
  },
  "schemaVersion": "3.4.14",
  "updatedAt": "2023-06-28T23:14:36.686Z",
  "networkType": "ethereum",
  "devdoc": {
    "kind": "dev",
    "methods": {},
    "version": 1
  },
  "userdoc": {
    "kind": "user",
    "methods": {},
    "version": 1
  }
}