{
  "contractName": "vote",
  "abi": [
    {
      "inputs": [],
      "stateMutability": "nonpayable",
      "type": "constructor"
    },
    {
      "anonymous": false,
      "inputs": [
        {
          "indexed": false,
          "internalType": "string",
          "name": "winner_changed",
          "type": "string"
        }
      ],
      "name": "winner_chage",
      "type": "event"
    },
    {
      "inputs": [],
      "name": "admin",
      "outputs": [
        {
          "internalType": "address",
          "name": "",
          "type": "address"
        }
      ],
      "stateMutability": "view",
      "type": "function",
      "constant": true
    },
    {
      "inputs": [
        {
          "internalType": "address",
          "name": "",
          "type": "address"
        }
      ],
      "name": "isVoted",
      "outputs": [
        {
          "internalType": "bool",
          "name": "",
          "type": "bool"
        }
      ],
      "stateMutability": "view",
      "type": "function",
      "constant": true
    },
    {
      "inputs": [
        {
          "internalType": "uint256",
          "name": "",
          "type": "uint256"
        }
      ],
      "name": "options",
      "outputs": [
        {
          "internalType": "string",
          "name": "",
          "type": "string"
        }
      ],
      "stateMutability": "view",
      "type": "function",
      "constant": true
    },
    {
      "inputs": [
        {
          "internalType": "uint256",
          "name": "",
          "type": "uint256"
        }
      ],
      "name": "voterlist",
      "outputs": [
        {
          "internalType": "address",
          "name": "",
          "type": "address"
        }
      ],
      "stateMutability": "view",
      "type": "function",
      "constant": true
    },
    {
      "inputs": [
        {
          "internalType": "string",
          "name": "",
          "type": "string"
        }
      ],
      "name": "votes",
      "outputs": [
        {
          "internalType": "uint256",
          "name": "",
          "type": "uint256"
        }
      ],
      "stateMutability": "view",
      "type": "function",
      "constant": true
    },
    {
      "inputs": [],
      "name": "winner",
      "outputs": [
        {
          "internalType": "string",
          "name": "",
          "type": "string"
        }
      ],
      "stateMutability": "view",
      "type": "function",
      "constant": true
    },
    {
      "inputs": [],
      "name": "optionsList",
      "outputs": [
        {
          "internalType": "string[]",
          "name": "",
          "type": "string[]"
        }
      ],
      "stateMutability": "view",
      "type": "function",
      "constant": true
    },
    {
      "inputs": [
        {
          "internalType": "string",
          "name": "_option",
          "type": "string"
        }
      ],
      "name": "addOption",
      "outputs": [],
      "stateMutability": "nonpayable",
      "type": "function"
    },
    {
      "inputs": [
        {
          "internalType": "address",
          "name": "_voter",
          "type": "address"
        }
      ],
      "name": "addVoter",
      "outputs": [],
      "stateMutability": "nonpayable",
      "type": "function"
    },
    {
      "inputs": [
        {
          "internalType": "address",
          "name": "_signer",
          "type": "address"
        },
        {
          "internalType": "bytes32",
          "name": "_messageHash",
          "type": "bytes32"
        },
        {
          "internalType": "bytes",
          "name": "_signature",
          "type": "bytes"
        }
      ],
      "name": "verifySignature",
      "outputs": [
        {
          "internalType": "bool",
          "name": "",
          "type": "bool"
        }
      ],
      "stateMutability": "pure",
      "type": "function",
      "constant": true
    },
    {
      "inputs": [
        {
          "internalType": "address",
          "name": "_signer",
          "type": "address"
        },
        {
          "internalType": "bytes32",
          "name": "_messageHash",
          "type": "bytes32"
        },
        {
          "internalType": "bytes",
          "name": "_signature",
          "type": "bytes"
        },
        {
          "internalType": "string",
          "name": "option",
          "type": "string"
        }
      ],
      "name": "Vote",
      "outputs": [],
      "stateMutability": "nonpayable",
      "type": "function"
    }
  ],
  "bytecode": "0x60806040526040518060400160405280600581526020017f6b756e616c000000000000000000000000000000000000000000000000000000815250600590816200004a91906200060d565b5060006006553480156200005d57600080fd5b50336000806101000a81548173ffffffffffffffffffffffffffffffffffffffff021916908373ffffffffffffffffffffffffffffffffffffffff160217905550600173107db54211d55001d2b3d66ea0b67b50da9c3d389080600181540180825580915050600190039060005260206000200160009091909190916101000a81548173ffffffffffffffffffffffffffffffffffffffff021916908373ffffffffffffffffffffffffffffffffffffffff16021790555060017318e7aa6e40af711ae27e1643a4a08e13588c5b839080600181540180825580915050600190039060005260206000200160009091909190916101000a81548173ffffffffffffffffffffffffffffffffffffffff021916908373ffffffffffffffffffffffffffffffffffffffff160217905550600380600181540180825580915050600190039060005260206000200160006040518060400160405280600481526020017f4d6f64690000000000000000000000000000000000000000000000000000000081525090919091509081620001f491906200060d565b50600380600181540180825580915050600190039060005260206000200160006040518060400160405280600581526020017f526168756c000000000000000000000000000000000000000000000000000000815250909190915090816200025d91906200060d565b5060005b6001805490508110156200031e57600160026000600184815481106200028c576200028b620006f4565b5b9060005260206000200160009054906101000a900473ffffffffffffffffffffffffffffffffffffffff1673ffffffffffffffffffffffffffffffffffffffff1673ffffffffffffffffffffffffffffffffffffffff16815260200190815260200160002060006101000a81548160ff0219169083151502179055508080620003159062000752565b91505062000261565b5060005b6003805490508110156200038c5760006004600383815481106200034b576200034a620006f4565b5b9060005260206000200160405162000364919062000839565b9081526020016040518091039020819055508080620003839062000752565b91505062000322565b5062000852565b600081519050919050565b7f4e487b7100000000000000000000000000000000000000000000000000000000600052604160045260246000fd5b7f4e487b7100000000000000000000000000000000000000000000000000000000600052602260045260246000fd5b600060028204905060018216806200041557607f821691505b6020821081036200042b576200042a620003cd565b5b50919050565b60008190508160005260206000209050919050565b60006020601f8301049050919050565b600082821b905092915050565b600060088302620004957fffffffffffffffffffffffffffffffffffffffffffffffffffffffffffffffff8262000456565b620004a1868362000456565b95508019841693508086168417925050509392505050565b6000819050919050565b6000819050919050565b6000620004ee620004e8620004e284620004b9565b620004c3565b620004b9565b9050919050565b6000819050919050565b6200050a83620004cd565b620005226200051982620004f5565b84845462000463565b825550505050565b600090565b620005396200052a565b62000546818484620004ff565b505050565b5b818110156200056e57620005626000826200052f565b6001810190506200054c565b5050565b601f821115620005bd57620005878162000431565b620005928462000446565b81016020851015620005a2578190505b620005ba620005b18562000446565b8301826200054b565b50505b505050565b600082821c905092915050565b6000620005e260001984600802620005c2565b1980831691505092915050565b6000620005fd8383620005cf565b9150826002028217905092915050565b620006188262000393565b67ffffffffffffffff8111156200063457620006336200039e565b5b620006408254620003fc565b6200064d82828562000572565b600060209050601f83116001811462000685576000841562000670578287015190505b6200067c8582620005ef565b865550620006ec565b601f198416620006958662000431565b60005b82811015620006bf5784890151825560018201915060208501945060208101905062000698565b86831015620006df5784890151620006db601f891682620005cf565b8355505b6001600288020188555050505b505050505050565b7f4e487b7100000000000000000000000000000000000000000000000000000000600052603260045260246000fd5b7f4e487b7100000000000000000000000000000000000000000000000000000000600052601160045260246000fd5b60006200075f82620004b9565b91507fffffffffffffffffffffffffffffffffffffffffffffffffffffffffffffffff820362000794576200079362000723565b5b600182019050919050565b600081905092915050565b60008154620007b981620003fc565b620007c581866200079f565b94506001821660008114620007e35760018114620007f95762000830565b60ff198316865281151582028601935062000830565b620008048562000431565b60005b83811015620008285781548189015260018201915060208101905062000807565b838801955050505b50505092915050565b6000620008478284620007aa565b915081905092915050565b61165c80620008626000396000f3fe608060405234801561001057600080fd5b50600436106100a95760003560e01c8063cbff75cb11610071578063cbff75cb1461018a578063cf205bff146101ba578063dfbf53ae146101d8578063edc550dc146101f6578063f4ab9adf14610212578063f851a4401461022e576100a9565b806301751998146100ae578063334d521b146100de578063409e2205146100fa57806354d8d6d21461012a578063b99ef1fa1461015a575b600080fd5b6100c860048036038101906100c39190610bf9565b61024c565b6040516100d59190610c83565b60405180910390f35b6100f860048036038101906100f39190610d3f565b610380565b005b610114600480360381019061010f9190610e14565b610511565b6040516101219190610ec0565b60405180910390f35b610144600480360381019061013f9190610e14565b6105bd565b6040516101519190610ef1565b60405180910390f35b610174600480360381019061016f9190610f0c565b6105fc565b6040516101819190610f64565b60405180910390f35b6101a4600480360381019061019f9190610f7f565b61062a565b6040516101b19190610c83565b60405180910390f35b6101c261064a565b6040516101cf91906110b8565b60405180910390f35b6101e0610723565b6040516101ed9190610ec0565b60405180910390f35b610210600480360381019061020b9190610f0c565b6107b1565b005b61022c60048036038101906102279190610f7f565b61089b565b005b6102366109e7565b6040516102439190610ef1565b60405180910390f35b60008060008060418551146102675760009350505050610379565b6020850151925060408501519150606085015160001a9050601b8160ff16101561029b57601b816102989190611116565b90505b601b8160ff16141580156102b35750601c8160ff1614155b156102c45760009350505050610379565b6000866040516020016102d791906111c3565b6040516020818303038152906040528051906020012090506000600182848787604051600081526020016040526040516103149493929190611207565b6020604051602081039080840390855afa158015610336573d6000803e3d6000fd5b5050506020604051035190508873ffffffffffffffffffffffffffffffffffffffff168173ffffffffffffffffffffffffffffffffffffffff1614955050505050505b9392505050565b600260008573ffffffffffffffffffffffffffffffffffffffff1673ffffffffffffffffffffffffffffffffffffffff16815260200190815260200160002060009054906101000a900460ff166103d657600080fd5b6103e184848461024c565b6103ea57600080fd5b6004816040516103fa919061127d565b9081526020016040518091039020600081548092919061041990611294565b919050555060048160405161042e919061127d565b90815260200160405180910390205460065410156104b357600481604051610456919061127d565b908152602001604051809103902054600681905550806005908161047a91906114e8565b507f937cd41c9b973f20d949b6a815ecf96043752ba2e99a66bf7e60f5d0baf4934e816040516104aa9190610ec0565b60405180910390a15b6000600260008673ffffffffffffffffffffffffffffffffffffffff1673ffffffffffffffffffffffffffffffffffffffff16815260200190815260200160002060006101000a81548160ff02191690831515021790555050505050565b6003818154811061052157600080fd5b90600052602060002001600091509050805461053c9061130b565b80601f01602080910402602001604051908101604052809291908181526020018280546105689061130b565b80156105b55780601f1061058a576101008083540402835291602001916105b5565b820191906000526020600020905b81548152906001019060200180831161059857829003601f168201915b505050505081565b600181815481106105cd57600080fd5b906000526020600020016000915054906101000a900473ffffffffffffffffffffffffffffffffffffffff1681565b6004818051602081018201805184825260208301602085012081835280955050505050506000915090505481565b60026020528060005260406000206000915054906101000a900460ff1681565b60606003805480602002602001604051908101604052809291908181526020016000905b8282101561071a57838290600052602060002001805461068d9061130b565b80601f01602080910402602001604051908101604052809291908181526020018280546106b99061130b565b80156107065780601f106106db57610100808354040283529160200191610706565b820191906000526020600020905b8154815290600101906020018083116106e957829003601f168201915b50505050508152602001906001019061066e565b50505050905090565b600580546107309061130b565b80601f016020809104026020016040519081016040528092919081815260200182805461075c9061130b565b80156107a95780601f1061077e576101008083540402835291602001916107a9565b820191906000526020600020905b81548152906001019060200180831161078c57829003601f168201915b505050505081565b60008054906101000a900473ffffffffffffffffffffffffffffffffffffffff1673ffffffffffffffffffffffffffffffffffffffff163373ffffffffffffffffffffffffffffffffffffffff161461083f576040517f08c379a000000000000000000000000000000000000000000000000000000000815260040161083690611606565b60405180910390fd5b60038190806001815401808255809150506001900390600052602060002001600090919091909150908161087391906114e8565b506000600482604051610886919061127d565b90815260200160405180910390208190555050565b60008054906101000a900473ffffffffffffffffffffffffffffffffffffffff1673ffffffffffffffffffffffffffffffffffffffff163373ffffffffffffffffffffffffffffffffffffffff1614610929576040517f08c379a000000000000000000000000000000000000000000000000000000000815260040161092090611606565b60405180910390fd5b6001819080600181540180825580915050600190039060005260206000200160009091909190916101000a81548173ffffffffffffffffffffffffffffffffffffffff021916908373ffffffffffffffffffffffffffffffffffffffff1602179055506001600260008373ffffffffffffffffffffffffffffffffffffffff1673ffffffffffffffffffffffffffffffffffffffff16815260200190815260200160002060006101000a81548160ff02191690831515021790555050565b60008054906101000a900473ffffffffffffffffffffffffffffffffffffffff1681565b6000604051905090565b600080fd5b600080fd5b600073ffffffffffffffffffffffffffffffffffffffff82169050919050565b6000610a4a82610a1f565b9050919050565b610a5a81610a3f565b8114610a6557600080fd5b50565b600081359050610a7781610a51565b92915050565b6000819050919050565b610a9081610a7d565b8114610a9b57600080fd5b50565b600081359050610aad81610a87565b92915050565b600080fd5b600080fd5b6000601f19601f8301169050919050565b7f4e487b7100000000000000000000000000000000000000000000000000000000600052604160045260246000fd5b610b0682610abd565b810181811067ffffffffffffffff82111715610b2557610b24610ace565b5b80604052505050565b6000610b38610a0b565b9050610b448282610afd565b919050565b600067ffffffffffffffff821115610b6457610b63610ace565b5b610b6d82610abd565b9050602081019050919050565b82818337600083830152505050565b6000610b9c610b9784610b49565b610b2e565b905082815260208101848484011115610bb857610bb7610ab8565b5b610bc3848285610b7a565b509392505050565b600082601f830112610be057610bdf610ab3565b5b8135610bf0848260208601610b89565b91505092915050565b600080600060608486031215610c1257610c11610a15565b5b6000610c2086828701610a68565b9350506020610c3186828701610a9e565b925050604084013567ffffffffffffffff811115610c5257610c51610a1a565b5b610c5e86828701610bcb565b9150509250925092565b60008115159050919050565b610c7d81610c68565b82525050565b6000602082019050610c986000830184610c74565b92915050565b600067ffffffffffffffff821115610cb957610cb8610ace565b5b610cc282610abd565b9050602081019050919050565b6000610ce2610cdd84610c9e565b610b2e565b905082815260208101848484011115610cfe57610cfd610ab8565b5b610d09848285610b7a565b509392505050565b600082601f830112610d2657610d25610ab3565b5b8135610d36848260208601610ccf565b91505092915050565b60008060008060808587031215610d5957610d58610a15565b5b6000610d6787828801610a68565b9450506020610d7887828801610a9e565b935050604085013567ffffffffffffffff811115610d9957610d98610a1a565b5b610da587828801610bcb565b925050606085013567ffffffffffffffff811115610dc657610dc5610a1a565b5b610dd287828801610d11565b91505092959194509250565b6000819050919050565b610df181610dde565b8114610dfc57600080fd5b50565b600081359050610e0e81610de8565b92915050565b600060208284031215610e2a57610e29610a15565b5b6000610e3884828501610dff565b91505092915050565b600081519050919050565b600082825260208201905092915050565b60005b83811015610e7b578082015181840152602081019050610e60565b60008484015250505050565b6000610e9282610e41565b610e9c8185610e4c565b9350610eac818560208601610e5d565b610eb581610abd565b840191505092915050565b60006020820190508181036000830152610eda8184610e87565b905092915050565b610eeb81610a3f565b82525050565b6000602082019050610f066000830184610ee2565b92915050565b600060208284031215610f2257610f21610a15565b5b600082013567ffffffffffffffff811115610f4057610f3f610a1a565b5b610f4c84828501610d11565b91505092915050565b610f5e81610dde565b82525050565b6000602082019050610f796000830184610f55565b92915050565b600060208284031215610f9557610f94610a15565b5b6000610fa384828501610a68565b91505092915050565b600081519050919050565b600082825260208201905092915050565b6000819050602082019050919050565b600082825260208201905092915050565b6000610ff482610e41565b610ffe8185610fd8565b935061100e818560208601610e5d565b61101781610abd565b840191505092915050565b600061102e8383610fe9565b905092915050565b6000602082019050919050565b600061104e82610fac565b6110588185610fb7565b93508360208202850161106a85610fc8565b8060005b858110156110a657848403895281516110878582611022565b945061109283611036565b925060208a0199505060018101905061106e565b50829750879550505050505092915050565b600060208201905081810360008301526110d28184611043565b905092915050565b600060ff82169050919050565b7f4e487b7100000000000000000000000000000000000000000000000000000000600052601160045260246000fd5b6000611121826110da565b915061112c836110da565b9250828201905060ff811115611145576111446110e7565b5b92915050565b600081905092915050565b7f19457468657265756d205369676e6564204d6573736167653a0a333200000000600082015250565b600061118c601c8361114b565b915061119782611156565b601c82019050919050565b6000819050919050565b6111bd6111b882610a7d565b6111a2565b82525050565b60006111ce8261117f565b91506111da82846111ac565b60208201915081905092915050565b6111f281610a7d565b82525050565b611201816110da565b82525050565b600060808201905061121c60008301876111e9565b61122960208301866111f8565b61123660408301856111e9565b61124360608301846111e9565b95945050505050565b600061125782610e41565b611261818561114b565b9350611271818560208601610e5d565b80840191505092915050565b6000611289828461124c565b915081905092915050565b600061129f82610dde565b91507fffffffffffffffffffffffffffffffffffffffffffffffffffffffffffffffff82036112d1576112d06110e7565b5b600182019050919050565b7f4e487b7100000000000000000000000000000000000000000000000000000000600052602260045260246000fd5b6000600282049050600182168061132357607f821691505b602082108103611336576113356112dc565b5b50919050565b60008190508160005260206000209050919050565b60006020601f8301049050919050565b600082821b905092915050565b60006008830261139e7fffffffffffffffffffffffffffffffffffffffffffffffffffffffffffffffff82611361565b6113a88683611361565b95508019841693508086168417925050509392505050565b6000819050919050565b60006113e56113e06113db84610dde565b6113c0565b610dde565b9050919050565b6000819050919050565b6113ff836113ca565b61141361140b826113ec565b84845461136e565b825550505050565b600090565b61142861141b565b6114338184846113f6565b505050565b5b818110156114575761144c600082611420565b600181019050611439565b5050565b601f82111561149c5761146d8161133c565b61147684611351565b81016020851015611485578190505b61149961149185611351565b830182611438565b50505b505050565b600082821c905092915050565b60006114bf600019846008026114a1565b1980831691505092915050565b60006114d883836114ae565b9150826002028217905092915050565b6114f182610e41565b67ffffffffffffffff81111561150a57611509610ace565b5b611514825461130b565b61151f82828561145b565b600060209050601f8311600181146115525760008415611540578287015190505b61154a85826114cc565b8655506115b2565b601f1984166115608661133c565b60005b8281101561158857848901518255600182019150602085019450602081019050611563565b868310156115a557848901516115a1601f8916826114ae565b8355505b6001600288020188555050505b505050505050565b7f596f7520617265206e6f74207468652061646d696e0000000000000000000000600082015250565b60006115f0601583610e4c565b91506115fb826115ba565b602082019050919050565b6000602082019050818103600083015261161f816115e3565b905091905056fea2646970667358221220b9b22713b8a5ddb6e305e1524a8d949cc19e8b19f3445beeeac1fe4f130fd07964736f6c63430008120033",
  "immutableReferences": {},
  "source": "// SPDX-License-Identifier: GPL-3.0\n\npragma solidity >=0.8.2 <0.9.0;\n\ncontract vote {\n    address public admin;\n    address[] public voterlist;\n    mapping(address => bool) public isVoted;\n    string[] public options;\n    mapping(string => uint) public votes;\n\n    string public winner = \"kunal\";\n    uint private maxVote = 0;\n\n    event winner_chage(string winner_changed);\n\n    constructor() {\n        admin = msg.sender;\n        voterlist.push(0x107dB54211D55001D2b3D66ea0b67b50dA9c3d38);\n        voterlist.push(0x18e7aa6e40af711Ae27E1643A4A08e13588c5B83);\n        options.push(\"Modi\");\n        options.push(\"Rahul\");\n\n        for (uint i = 0; i < voterlist.length; i++) {\n            isVoted[voterlist[i]] = true;\n        }\n\n        for (uint i = 0; i < options.length; i++) {\n            votes[options[i]] = 0;\n        }\n    }\n\n    function optionsList() public view returns (string[] memory) {\n        return options;\n    }\n\n    modifier onlyadmin() {\n        require(msg.sender == admin, \"You are not the admin\");\n        _;\n    }\n\n    function addOption(string memory _option) public onlyadmin {\n        options.push(_option);\n        votes[_option] = 0;\n    }\n\n    function addVoter(address _voter) public onlyadmin {\n        voterlist.push(_voter);\n        isVoted[_voter] = true;\n    }\n\n    function verifySignature(\n        address _signer,\n        bytes32 _messageHash,\n        bytes memory _signature\n    ) public pure returns (bool) {\n        bytes32 r;\n        bytes32 s;\n        uint8 v;\n        if (_signature.length != 65) {\n            return false;\n        }\n        assembly {\n            r := mload(add(_signature, 32))\n            s := mload(add(_signature, 64))\n            v := byte(0, mload(add(_signature, 96)))\n        }\n        if (v < 27) {\n            v += 27;\n        }\n        if (v != 27 && v != 28) {\n            return false;\n        }\n        bytes32 hash = keccak256(\n            abi.encodePacked(\"\\x19Ethereum Signed Message:\\n32\", _messageHash)\n        );\n        address signer = ecrecover(hash, v, r, s);\n        return signer == _signer;\n    }\n\n    function Vote(\n        address _signer,\n        bytes32 _messageHash,\n        bytes memory _signature,\n        string memory option\n    ) public {\n        require(isVoted[_signer]);\n        require(verifySignature(_signer, _messageHash, _signature));\n        votes[option]++;\n        if (maxVote < votes[option]) {\n            maxVote = votes[option];\n            winner = option;\n            emit winner_chage(option);\n        }\n        isVoted[_signer] = false;\n    }\n\n    // function winer() public {}\n}\n",
  "sourcePath": "/workspace/Kunal766-Decentralized-Voting-System/truffle/contracts/Voteing.sol",
  "compiler": {
    "name": "solc",
    "version": "0.8.18+commit.87f61d96.Emscripten.clang"
  },
  "schemaVersion": "3.4.14",
  "updatedAt": "2023-06-28T23:13:51.165Z",
  "networkType": "ethereum",
  "devdoc": {
    "kind": "dev",
    "methods": {},
    "version": 1
  },
  "userdoc": {
    "kind": "user",
    "methods": {},
    "version": 1
  }
}